{
  "contractName": "Catemoon",
  "abi": [
    {
      "inputs": [],
      "stateMutability": "nonpayable",
      "type": "constructor"
    },
    {
      "anonymous": false,
      "inputs": [
        {
          "indexed": true,
          "internalType": "address",
          "name": "owner",
          "type": "address"
        },
        {
          "indexed": true,
          "internalType": "address",
          "name": "spender",
          "type": "address"
        },
        {
          "indexed": false,
          "internalType": "uint256",
          "name": "value",
          "type": "uint256"
        }
      ],
      "name": "Approval",
      "type": "event"
    },
    {
      "anonymous": false,
      "inputs": [
        {
          "indexed": false,
          "internalType": "uint256",
          "name": "minTokensBeforeSwap",
          "type": "uint256"
        }
      ],
      "name": "MinTokensBeforeSwapUpdated",
      "type": "event"
    },
    {
      "anonymous": false,
      "inputs": [
        {
          "indexed": true,
          "internalType": "address",
          "name": "previousOwner",
          "type": "address"
        },
        {
          "indexed": true,
          "internalType": "address",
          "name": "newOwner",
          "type": "address"
        }
      ],
      "name": "OwnershipTransferred",
      "type": "event"
    },
    {
      "anonymous": false,
      "inputs": [
        {
          "indexed": false,
          "internalType": "uint256",
          "name": "tokensSwapped",
          "type": "uint256"
        },
        {
          "indexed": false,
          "internalType": "uint256",
          "name": "ethReceived",
          "type": "uint256"
        },
        {
          "indexed": false,
          "internalType": "uint256",
          "name": "tokensIntoLiqudity",
          "type": "uint256"
        }
      ],
      "name": "SwapAndLiquify",
      "type": "event"
    },
    {
      "anonymous": false,
      "inputs": [
        {
          "indexed": false,
          "internalType": "bool",
          "name": "enabled",
          "type": "bool"
        }
      ],
      "name": "SwapAndLiquifyEnabledUpdated",
      "type": "event"
    },
    {
      "anonymous": false,
      "inputs": [
        {
          "indexed": true,
          "internalType": "address",
          "name": "from",
          "type": "address"
        },
        {
          "indexed": true,
          "internalType": "address",
          "name": "to",
          "type": "address"
        },
        {
          "indexed": false,
          "internalType": "uint256",
          "name": "value",
          "type": "uint256"
        }
      ],
      "name": "Transfer",
      "type": "event"
    },
    {
      "inputs": [],
      "name": "_devFee",
      "outputs": [
        {
          "internalType": "uint256",
          "name": "",
          "type": "uint256"
        }
      ],
      "stateMutability": "view",
      "type": "function",
      "constant": true
    },
    {
      "inputs": [],
      "name": "_liquidityFee",
      "outputs": [
        {
          "internalType": "uint256",
          "name": "",
          "type": "uint256"
        }
      ],
      "stateMutability": "view",
      "type": "function",
      "constant": true
    },
    {
      "inputs": [],
      "name": "_maxTxAmount",
      "outputs": [
        {
          "internalType": "uint256",
          "name": "",
          "type": "uint256"
        }
      ],
      "stateMutability": "view",
      "type": "function",
      "constant": true
    },
    {
      "inputs": [],
      "name": "devAddress",
      "outputs": [
        {
          "internalType": "address",
          "name": "",
          "type": "address"
        }
      ],
      "stateMutability": "view",
      "type": "function",
      "constant": true
    },
    {
      "inputs": [],
      "name": "geUnlockTime",
      "outputs": [
        {
          "internalType": "uint256",
          "name": "",
          "type": "uint256"
        }
      ],
      "stateMutability": "view",
      "type": "function",
      "constant": true
    },
    {
      "inputs": [
        {
          "internalType": "uint256",
          "name": "time",
          "type": "uint256"
        }
      ],
      "name": "lock",
      "outputs": [],
      "stateMutability": "nonpayable",
      "type": "function"
    },
    {
      "inputs": [],
      "name": "owner",
      "outputs": [
        {
          "internalType": "address",
          "name": "",
          "type": "address"
        }
      ],
      "stateMutability": "view",
      "type": "function",
      "constant": true
    },
    {
      "inputs": [],
      "name": "renounceOwnership",
      "outputs": [],
      "stateMutability": "nonpayable",
      "type": "function"
    },
    {
      "inputs": [],
      "name": "swapAndLiquifyEnabled",
      "outputs": [
        {
          "internalType": "bool",
          "name": "",
          "type": "bool"
        }
      ],
      "stateMutability": "view",
      "type": "function",
      "constant": true
    },
    {
      "inputs": [
        {
          "internalType": "address",
          "name": "newOwner",
          "type": "address"
        }
      ],
      "name": "transferOwnership",
      "outputs": [],
      "stateMutability": "nonpayable",
      "type": "function"
    },
    {
      "inputs": [],
      "name": "uniswapV2Pair",
      "outputs": [
        {
          "internalType": "address",
          "name": "",
          "type": "address"
        }
      ],
      "stateMutability": "view",
      "type": "function",
      "constant": true
    },
    {
      "inputs": [],
      "name": "uniswapV2Router",
      "outputs": [
        {
          "internalType": "contract IUniswapV2Router02",
          "name": "",
          "type": "address"
        }
      ],
      "stateMutability": "view",
      "type": "function",
      "constant": true
    },
    {
      "inputs": [],
      "name": "unlock",
      "outputs": [],
      "stateMutability": "nonpayable",
      "type": "function"
    },
    {
      "stateMutability": "payable",
      "type": "receive",
      "payable": true
    },
    {
      "inputs": [],
      "name": "name",
      "outputs": [
        {
          "internalType": "string",
          "name": "",
          "type": "string"
        }
      ],
      "stateMutability": "view",
      "type": "function",
      "constant": true
    },
    {
      "inputs": [],
      "name": "symbol",
      "outputs": [
        {
          "internalType": "string",
          "name": "",
          "type": "string"
        }
      ],
      "stateMutability": "view",
      "type": "function",
      "constant": true
    },
    {
      "inputs": [],
      "name": "decimals",
      "outputs": [
        {
          "internalType": "uint8",
          "name": "",
          "type": "uint8"
        }
      ],
      "stateMutability": "view",
      "type": "function",
      "constant": true
    },
    {
      "inputs": [],
      "name": "totalSupply",
      "outputs": [
        {
          "internalType": "uint256",
          "name": "",
          "type": "uint256"
        }
      ],
      "stateMutability": "view",
      "type": "function",
      "constant": true
    },
    {
      "inputs": [
        {
          "internalType": "address",
          "name": "account",
          "type": "address"
        }
      ],
      "name": "balanceOf",
      "outputs": [
        {
          "internalType": "uint256",
          "name": "",
          "type": "uint256"
        }
      ],
      "stateMutability": "view",
      "type": "function",
      "constant": true
    },
    {
      "inputs": [
        {
          "internalType": "address",
          "name": "recipient",
          "type": "address"
        },
        {
          "internalType": "uint256",
          "name": "amount",
          "type": "uint256"
        }
      ],
      "name": "transfer",
      "outputs": [
        {
          "internalType": "bool",
          "name": "",
          "type": "bool"
        }
      ],
      "stateMutability": "nonpayable",
      "type": "function"
    },
    {
      "inputs": [
        {
          "internalType": "address",
          "name": "owner",
          "type": "address"
        },
        {
          "internalType": "address",
          "name": "spender",
          "type": "address"
        }
      ],
      "name": "allowance",
      "outputs": [
        {
          "internalType": "uint256",
          "name": "",
          "type": "uint256"
        }
      ],
      "stateMutability": "view",
      "type": "function",
      "constant": true
    },
    {
      "inputs": [
        {
          "internalType": "address",
          "name": "spender",
          "type": "address"
        },
        {
          "internalType": "uint256",
          "name": "amount",
          "type": "uint256"
        }
      ],
      "name": "approve",
      "outputs": [
        {
          "internalType": "bool",
          "name": "",
          "type": "bool"
        }
      ],
      "stateMutability": "nonpayable",
      "type": "function"
    },
    {
      "inputs": [
        {
          "internalType": "address",
          "name": "sender",
          "type": "address"
        },
        {
          "internalType": "address",
          "name": "recipient",
          "type": "address"
        },
        {
          "internalType": "uint256",
          "name": "amount",
          "type": "uint256"
        }
      ],
      "name": "transferFrom",
      "outputs": [
        {
          "internalType": "bool",
          "name": "",
          "type": "bool"
        }
      ],
      "stateMutability": "nonpayable",
      "type": "function"
    },
    {
      "inputs": [
        {
          "internalType": "address",
          "name": "spender",
          "type": "address"
        },
        {
          "internalType": "uint256",
          "name": "addedValue",
          "type": "uint256"
        }
      ],
      "name": "increaseAllowance",
      "outputs": [
        {
          "internalType": "bool",
          "name": "",
          "type": "bool"
        }
      ],
      "stateMutability": "nonpayable",
      "type": "function"
    },
    {
      "inputs": [
        {
          "internalType": "address",
          "name": "spender",
          "type": "address"
        },
        {
          "internalType": "uint256",
          "name": "subtractedValue",
          "type": "uint256"
        }
      ],
      "name": "decreaseAllowance",
      "outputs": [
        {
          "internalType": "bool",
          "name": "",
          "type": "bool"
        }
      ],
      "stateMutability": "nonpayable",
      "type": "function"
    },
    {
      "inputs": [
        {
          "internalType": "address",
          "name": "account",
          "type": "address"
        }
      ],
      "name": "isExcludedFromFee",
      "outputs": [
        {
          "internalType": "bool",
          "name": "",
          "type": "bool"
        }
      ],
      "stateMutability": "view",
      "type": "function",
      "constant": true
    },
    {
      "inputs": [
        {
          "internalType": "address",
          "name": "account",
          "type": "address"
        }
      ],
      "name": "includeInFee",
      "outputs": [],
      "stateMutability": "nonpayable",
      "type": "function"
    },
    {
      "inputs": [
        {
          "internalType": "address",
          "name": "account",
          "type": "address"
        }
      ],
      "name": "excludeFromFee",
      "outputs": [],
      "stateMutability": "nonpayable",
      "type": "function"
    },
    {
      "inputs": [
        {
          "internalType": "bool",
          "name": "_enabled",
          "type": "bool"
        }
      ],
      "name": "setSwapAndLiquifyEnabled",
      "outputs": [],
      "stateMutability": "nonpayable",
      "type": "function"
    },
    {
      "inputs": [
        {
          "internalType": "uint256",
          "name": "liquidityFee",
          "type": "uint256"
        }
      ],
      "name": "setLiquidityFeePercent",
      "outputs": [],
      "stateMutability": "nonpayable",
      "type": "function"
    },
    {
      "inputs": [
        {
          "internalType": "uint256",
          "name": "devFee",
          "type": "uint256"
        }
      ],
      "name": "setDevFeePercent",
      "outputs": [],
      "stateMutability": "nonpayable",
      "type": "function"
    },
    {
      "inputs": [
        {
          "internalType": "uint256",
          "name": "maxTxPercent",
          "type": "uint256"
        }
      ],
      "name": "setMaxTxPercent",
      "outputs": [],
      "stateMutability": "nonpayable",
      "type": "function"
    }
  ],
  "bytecode": "0x60c06040526040518060400160405280600581526020017f416c69656e00000000000000000000000000000000000000000000000000000081525060069080519060200190620000519291906200089a565b506040518060400160405280600381526020017f414c490000000000000000000000000000000000000000000000000000000000815250600790805190602001906200009f9291906200089a565b506012600860006101000a81548160ff021916908360ff1602179055506007600a55600a54600b556002600c55600c54600d55733ed5e8d1149c26c79b5c24adbd3a1400d838e57c600e60006101000a81548173ffffffffffffffffffffffffffffffffffffffff021916908373ffffffffffffffffffffffffffffffffffffffff1602179055506b06765c793fa10079d0000000600f556a084595161401484a0000006010556001601160016101000a81548160ff0219169083151502179055503480156200016e57600080fd5b506000620001816200054c60201b60201c565b9050806000806101000a81548173ffffffffffffffffffffffffffffffffffffffff021916908373ffffffffffffffffffffffffffffffffffffffff1602179055508073ffffffffffffffffffffffffffffffffffffffff16600073ffffffffffffffffffffffffffffffffffffffff167f8be0079c531659141344cd1fd0a4f28419497f9722a3daafe3b4186f6b6457e060405160405180910390a35060007310ed43c718714eb63d5aa57b78b54704e256024e90508073ffffffffffffffffffffffffffffffffffffffff1663c45a01556040518163ffffffff1660e01b815260040160206040518083038186803b1580156200027f57600080fd5b505afa15801562000294573d6000803e3d6000fd5b505050506040513d601f19601f82011682018060405250810190620002ba919062000961565b73ffffffffffffffffffffffffffffffffffffffff1663c9c65396308373ffffffffffffffffffffffffffffffffffffffff1663ad5c46486040518163ffffffff1660e01b815260040160206040518083038186803b1580156200031d57600080fd5b505afa15801562000332573d6000803e3d6000fd5b505050506040513d601f19601f8201168201806040525081019062000358919062000961565b6040518363ffffffff1660e01b81526004016200037792919062000ac1565b602060405180830381600087803b1580156200039257600080fd5b505af1158015620003a7573d6000803e3d6000fd5b505050506040513d601f19601f82011682018060405250810190620003cd919062000961565b73ffffffffffffffffffffffffffffffffffffffff1660a08173ffffffffffffffffffffffffffffffffffffffff1660601b815250508073ffffffffffffffffffffffffffffffffffffffff1660808173ffffffffffffffffffffffffffffffffffffffff1660601b81525050600160056000620004506200055460201b60201c565b73ffffffffffffffffffffffffffffffffffffffff1673ffffffffffffffffffffffffffffffffffffffff16815260200190815260200160002060006101000a81548160ff0219169083151502179055506001600560003073ffffffffffffffffffffffffffffffffffffffff1673ffffffffffffffffffffffffffffffffffffffff16815260200190815260200160002060006101000a81548160ff02191690831515021790555062000518336c02863c1f5cdae42f95400000006200057d60201b60201c565b620005453360026c02863c1f5cdae42f954000000062000539919062000bdf565b620006cf60201b60201c565b5062000d6d565b600033905090565b60008060009054906101000a900473ffffffffffffffffffffffffffffffffffffffff16905090565b600073ffffffffffffffffffffffffffffffffffffffff168273ffffffffffffffffffffffffffffffffffffffff161415620005f0576040517f08c379a0000000000000000000000000000000000000000000000000000000008152600401620005e79062000b32565b60405180910390fd5b806009600082825462000604919062000b82565b9250508190555080600360008473ffffffffffffffffffffffffffffffffffffffff1673ffffffffffffffffffffffffffffffffffffffff16815260200190815260200160002060008282546200065c919062000b82565b925050819055508173ffffffffffffffffffffffffffffffffffffffff16600073ffffffffffffffffffffffffffffffffffffffff167fddf252ad1be2c89b69c2b068fc378daa952ba7f163c4a11628f55a4df523b3ef83604051620006c3919062000b54565b60405180910390a35050565b600073ffffffffffffffffffffffffffffffffffffffff168273ffffffffffffffffffffffffffffffffffffffff16141562000742576040517f08c379a0000000000000000000000000000000000000000000000000000000008152600401620007399062000b10565b60405180910390fd5b6000600360008473ffffffffffffffffffffffffffffffffffffffff1673ffffffffffffffffffffffffffffffffffffffff16815260200190815260200160002054905081811015620007cc576040517f08c379a0000000000000000000000000000000000000000000000000000000008152600401620007c39062000aee565b60405180910390fd5b818103600360008573ffffffffffffffffffffffffffffffffffffffff1673ffffffffffffffffffffffffffffffffffffffff16815260200190815260200160002081905550816009600082825462000826919062000c17565b92505081905550600073ffffffffffffffffffffffffffffffffffffffff168373ffffffffffffffffffffffffffffffffffffffff167fddf252ad1be2c89b69c2b068fc378daa952ba7f163c4a11628f55a4df523b3ef846040516200088d919062000b54565b60405180910390a3505050565b828054620008a89062000c90565b90600052602060002090601f016020900481019282620008cc576000855562000918565b82601f10620008e757805160ff191683800117855562000918565b8280016001018555821562000918579182015b8281111562000917578251825591602001919060010190620008fa565b5b5090506200092791906200092b565b5090565b5b80821115620009465760008160009055506001016200092c565b5090565b6000815190506200095b8162000d53565b92915050565b6000602082840312156200097457600080fd5b600062000984848285016200094a565b91505092915050565b620009988162000c52565b82525050565b6000620009ad60228362000b71565b91507f45524332303a206275726e20616d6f756e7420657863656564732062616c616e60008301527f63650000000000000000000000000000000000000000000000000000000000006020830152604082019050919050565b600062000a1560218362000b71565b91507f45524332303a206275726e2066726f6d20746865207a65726f2061646472657360008301527f73000000000000000000000000000000000000000000000000000000000000006020830152604082019050919050565b600062000a7d601f8362000b71565b91507f45524332303a206d696e7420746f20746865207a65726f2061646472657373006000830152602082019050919050565b62000abb8162000c86565b82525050565b600060408201905062000ad860008301856200098d565b62000ae760208301846200098d565b9392505050565b6000602082019050818103600083015262000b09816200099e565b9050919050565b6000602082019050818103600083015262000b2b8162000a06565b9050919050565b6000602082019050818103600083015262000b4d8162000a6e565b9050919050565b600060208201905062000b6b600083018462000ab0565b92915050565b600082825260208201905092915050565b600062000b8f8262000c86565b915062000b9c8362000c86565b9250827fffffffffffffffffffffffffffffffffffffffffffffffffffffffffffffffff0382111562000bd45762000bd362000cc6565b5b828201905092915050565b600062000bec8262000c86565b915062000bf98362000c86565b92508262000c0c5762000c0b62000cf5565b5b828204905092915050565b600062000c248262000c86565b915062000c318362000c86565b92508282101562000c475762000c4662000cc6565b5b828203905092915050565b600062000c5f8262000c66565b9050919050565b600073ffffffffffffffffffffffffffffffffffffffff82169050919050565b6000819050919050565b6000600282049050600182168062000ca957607f821691505b6020821081141562000cc05762000cbf62000d24565b5b50919050565b7f4e487b7100000000000000000000000000000000000000000000000000000000600052601160045260246000fd5b7f4e487b7100000000000000000000000000000000000000000000000000000000600052601260045260246000fd5b7f4e487b7100000000000000000000000000000000000000000000000000000000600052602260045260246000fd5b62000d5e8162000c52565b811462000d6a57600080fd5b50565b60805160601c60a05160601c61363762000dca60003960008181610bc501528181611ce00152611d5f015260008181610827015281816123280152818161243e015281816124650152818161254c015261257301526136376000f3fe6080604052600436106101dc5760003560e01c8063715018a611610102578063aa45026b11610095578063dd46706411610064578063dd467064146106bd578063dd62ed3e146106e6578063ea2f0b3714610723578063f2fde38b1461074c576101e3565b8063aa45026b14610615578063b6c5232414610640578063c49b9a801461066b578063d543dbeb14610694576101e3565b806395d89b41116100d157806395d89b4114610559578063a457c2d714610584578063a69df4b5146105c1578063a9059cbb146105d8576101e3565b8063715018a6146104c35780637d1db4a5146104da5780638da5cb5b146105055780638ee88c5314610530576101e3565b8063395093511161017a5780634a74bb02116101495780634a74bb02146103f35780635342acb41461041e5780636bc87c3a1461045b57806370a0823114610486576101e3565b806339509351146103375780633ad10ef614610374578063437823ec1461039f57806349bd5a5e146103c8576101e3565b806318160ddd116101b657806318160ddd1461027b57806323b872dd146102a6578063313ce567146102e3578063379e29191461030e576101e3565b806306fdde03146101e8578063095ea7b3146102135780631694505e14610250576101e3565b366101e357005b600080fd5b3480156101f457600080fd5b506101fd610775565b60405161020a919061303b565b60405180910390f35b34801561021f57600080fd5b5061023a6004803603810190610235919061288c565b610807565b6040516102479190613005565b60405180910390f35b34801561025c57600080fd5b50610265610825565b6040516102729190613020565b60405180910390f35b34801561028757600080fd5b50610290610849565b60405161029d91906131fd565b60405180910390f35b3480156102b257600080fd5b506102cd60048036038101906102c8919061283d565b610853565b6040516102da9190613005565b60405180910390f35b3480156102ef57600080fd5b506102f861094b565b60405161030591906132a9565b60405180910390f35b34801561031a57600080fd5b50610335600480360381019061033091906128f1565b610962565b005b34801561034357600080fd5b5061035e6004803603810190610359919061288c565b610a01565b60405161036b9190613005565b60405180910390f35b34801561038057600080fd5b50610389610aad565b6040516103969190612f89565b60405180910390f35b3480156103ab57600080fd5b506103c660048036038101906103c191906127af565b610ad3565b005b3480156103d457600080fd5b506103dd610bc3565b6040516103ea9190612f89565b60405180910390f35b3480156103ff57600080fd5b50610408610be7565b6040516104159190613005565b60405180910390f35b34801561042a57600080fd5b50610445600480360381019061044091906127af565b610bfa565b6040516104529190613005565b60405180910390f35b34801561046757600080fd5b50610470610c50565b60405161047d91906131fd565b60405180910390f35b34801561049257600080fd5b506104ad60048036038101906104a891906127af565b610c56565b6040516104ba91906131fd565b60405180910390f35b3480156104cf57600080fd5b506104d8610c9f565b005b3480156104e657600080fd5b506104ef610df2565b6040516104fc91906131fd565b60405180910390f35b34801561051157600080fd5b5061051a610df8565b6040516105279190612f89565b60405180910390f35b34801561053c57600080fd5b50610557600480360381019061055291906128f1565b610e21565b005b34801561056557600080fd5b5061056e610ec0565b60405161057b919061303b565b60405180910390f35b34801561059057600080fd5b506105ab60048036038101906105a6919061288c565b610f52565b6040516105b89190613005565b60405180910390f35b3480156105cd57600080fd5b506105d661103d565b005b3480156105e457600080fd5b506105ff60048036038101906105fa919061288c565b611211565b60405161060c9190613005565b60405180910390f35b34801561062157600080fd5b5061062a61122f565b60405161063791906131fd565b60405180910390f35b34801561064c57600080fd5b50610655611235565b60405161066291906131fd565b60405180910390f35b34801561067757600080fd5b50610692600480360381019061068d91906128c8565b61123f565b005b3480156106a057600080fd5b506106bb60048036038101906106b691906128f1565b611328565b005b3480156106c957600080fd5b506106e460048036038101906106df91906128f1565b6113e0565b005b3480156106f257600080fd5b5061070d60048036038101906107089190612801565b6115a7565b60405161071a91906131fd565b60405180910390f35b34801561072f57600080fd5b5061074a600480360381019061074591906127af565b61162e565b005b34801561075857600080fd5b50610773600480360381019061076e91906127af565b61171e565b005b606060068054610784906134ec565b80601f01602080910402602001604051908101604052809291908181526020018280546107b0906134ec565b80156107fd5780601f106107d2576101008083540402835291602001916107fd565b820191906000526020600020905b8154815290600101906020018083116107e057829003601f168201915b5050505050905090565b600061081b6108146118e0565b84846118e8565b6001905092915050565b7f000000000000000000000000000000000000000000000000000000000000000081565b6000600954905090565b6000610860848484611ab3565b6000600460008673ffffffffffffffffffffffffffffffffffffffff1673ffffffffffffffffffffffffffffffffffffffff16815260200190815260200160002060006108ab6118e0565b73ffffffffffffffffffffffffffffffffffffffff1673ffffffffffffffffffffffffffffffffffffffff1681526020019081526020016000205490508281101561092b576040517f08c379a00000000000000000000000000000000000000000000000000000000081526004016109229061313d565b60405180910390fd5b61093f856109376118e0565b8584036118e8565b60019150509392505050565b6000600860009054906101000a900460ff16905090565b61096a6118e0565b73ffffffffffffffffffffffffffffffffffffffff1660008054906101000a900473ffffffffffffffffffffffffffffffffffffffff1673ffffffffffffffffffffffffffffffffffffffff16146109f7576040517f08c379a00000000000000000000000000000000000000000000000000000000081526004016109ee9061315d565b60405180910390fd5b80600c8190555050565b6000610aa3610a0e6118e0565b848460046000610a1c6118e0565b73ffffffffffffffffffffffffffffffffffffffff1673ffffffffffffffffffffffffffffffffffffffff16815260200190815260200160002060008873ffffffffffffffffffffffffffffffffffffffff1673ffffffffffffffffffffffffffffffffffffffff16815260200190815260200160002054610a9e9190613319565b6118e8565b6001905092915050565b600e60009054906101000a900473ffffffffffffffffffffffffffffffffffffffff1681565b610adb6118e0565b73ffffffffffffffffffffffffffffffffffffffff1660008054906101000a900473ffffffffffffffffffffffffffffffffffffffff1673ffffffffffffffffffffffffffffffffffffffff1614610b68576040517f08c379a0000000000000000000000000000000000000000000000000000000008152600401610b5f9061315d565b60405180910390fd5b6001600560008373ffffffffffffffffffffffffffffffffffffffff1673ffffffffffffffffffffffffffffffffffffffff16815260200190815260200160002060006101000a81548160ff02191690831515021790555050565b7f000000000000000000000000000000000000000000000000000000000000000081565b601160019054906101000a900460ff1681565b6000600560008373ffffffffffffffffffffffffffffffffffffffff1673ffffffffffffffffffffffffffffffffffffffff16815260200190815260200160002060009054906101000a900460ff169050919050565b600a5481565b6000600360008373ffffffffffffffffffffffffffffffffffffffff1673ffffffffffffffffffffffffffffffffffffffff168152602001908152602001600020549050919050565b610ca76118e0565b73ffffffffffffffffffffffffffffffffffffffff1660008054906101000a900473ffffffffffffffffffffffffffffffffffffffff1673ffffffffffffffffffffffffffffffffffffffff1614610d34576040517f08c379a0000000000000000000000000000000000000000000000000000000008152600401610d2b9061315d565b60405180910390fd5b600073ffffffffffffffffffffffffffffffffffffffff1660008054906101000a900473ffffffffffffffffffffffffffffffffffffffff1673ffffffffffffffffffffffffffffffffffffffff167f8be0079c531659141344cd1fd0a4f28419497f9722a3daafe3b4186f6b6457e060405160405180910390a360008060006101000a81548173ffffffffffffffffffffffffffffffffffffffff021916908373ffffffffffffffffffffffffffffffffffffffff160217905550565b600f5481565b60008060009054906101000a900473ffffffffffffffffffffffffffffffffffffffff16905090565b610e296118e0565b73ffffffffffffffffffffffffffffffffffffffff1660008054906101000a900473ffffffffffffffffffffffffffffffffffffffff1673ffffffffffffffffffffffffffffffffffffffff1614610eb6576040517f08c379a0000000000000000000000000000000000000000000000000000000008152600401610ead9061315d565b60405180910390fd5b80600a8190555050565b606060078054610ecf906134ec565b80601f0160208091040260200160405190810160405280929190818152602001828054610efb906134ec565b8015610f485780601f10610f1d57610100808354040283529160200191610f48565b820191906000526020600020905b815481529060010190602001808311610f2b57829003601f168201915b5050505050905090565b60008060046000610f616118e0565b73ffffffffffffffffffffffffffffffffffffffff1673ffffffffffffffffffffffffffffffffffffffff16815260200190815260200160002060008573ffffffffffffffffffffffffffffffffffffffff1673ffffffffffffffffffffffffffffffffffffffff1681526020019081526020016000205490508281101561101e576040517f08c379a0000000000000000000000000000000000000000000000000000000008152600401611015906131dd565b60405180910390fd5b6110326110296118e0565b858584036118e8565b600191505092915050565b3373ffffffffffffffffffffffffffffffffffffffff16600160009054906101000a900473ffffffffffffffffffffffffffffffffffffffff1673ffffffffffffffffffffffffffffffffffffffff16146110cd576040517f08c379a00000000000000000000000000000000000000000000000000000000081526004016110c4906131bd565b60405180910390fd5b6002544211611111576040517f08c379a00000000000000000000000000000000000000000000000000000000081526004016111089061309d565b60405180910390fd5b600160009054906101000a900473ffffffffffffffffffffffffffffffffffffffff1673ffffffffffffffffffffffffffffffffffffffff1660008054906101000a900473ffffffffffffffffffffffffffffffffffffffff1673ffffffffffffffffffffffffffffffffffffffff167f8be0079c531659141344cd1fd0a4f28419497f9722a3daafe3b4186f6b6457e060405160405180910390a3600160009054906101000a900473ffffffffffffffffffffffffffffffffffffffff166000806101000a81548173ffffffffffffffffffffffffffffffffffffffff021916908373ffffffffffffffffffffffffffffffffffffffff160217905550565b600061122561121e6118e0565b8484611ab3565b6001905092915050565b600c5481565b6000600254905090565b6112476118e0565b73ffffffffffffffffffffffffffffffffffffffff1660008054906101000a900473ffffffffffffffffffffffffffffffffffffffff1673ffffffffffffffffffffffffffffffffffffffff16146112d4576040517f08c379a00000000000000000000000000000000000000000000000000000000081526004016112cb9061315d565b60405180910390fd5b80601160016101000a81548160ff0219169083151502179055507f53726dfcaf90650aa7eb35524f4d3220f07413c8d6cb404cc8c18bf5591bc1598160405161131d9190613005565b60405180910390a150565b6113306118e0565b73ffffffffffffffffffffffffffffffffffffffff1660008054906101000a900473ffffffffffffffffffffffffffffffffffffffff1673ffffffffffffffffffffffffffffffffffffffff16146113bd576040517f08c379a00000000000000000000000000000000000000000000000000000000081526004016113b49061315d565b60405180910390fd5b6064816009546113cd91906133a0565b6113d7919061336f565b600f8190555050565b6113e86118e0565b73ffffffffffffffffffffffffffffffffffffffff1660008054906101000a900473ffffffffffffffffffffffffffffffffffffffff1673ffffffffffffffffffffffffffffffffffffffff1614611475576040517f08c379a000000000000000000000000000000000000000000000000000000000815260040161146c9061315d565b60405180910390fd5b60008054906101000a900473ffffffffffffffffffffffffffffffffffffffff16600160006101000a81548173ffffffffffffffffffffffffffffffffffffffff021916908373ffffffffffffffffffffffffffffffffffffffff16021790555060008060006101000a81548173ffffffffffffffffffffffffffffffffffffffff021916908373ffffffffffffffffffffffffffffffffffffffff16021790555080426115239190613319565b600281905550600073ffffffffffffffffffffffffffffffffffffffff1660008054906101000a900473ffffffffffffffffffffffffffffffffffffffff1673ffffffffffffffffffffffffffffffffffffffff167f8be0079c531659141344cd1fd0a4f28419497f9722a3daafe3b4186f6b6457e060405160405180910390a350565b6000600460008473ffffffffffffffffffffffffffffffffffffffff1673ffffffffffffffffffffffffffffffffffffffff16815260200190815260200160002060008373ffffffffffffffffffffffffffffffffffffffff1673ffffffffffffffffffffffffffffffffffffffff16815260200190815260200160002054905092915050565b6116366118e0565b73ffffffffffffffffffffffffffffffffffffffff1660008054906101000a900473ffffffffffffffffffffffffffffffffffffffff1673ffffffffffffffffffffffffffffffffffffffff16146116c3576040517f08c379a00000000000000000000000000000000000000000000000000000000081526004016116ba9061315d565b60405180910390fd5b6000600560008373ffffffffffffffffffffffffffffffffffffffff1673ffffffffffffffffffffffffffffffffffffffff16815260200190815260200160002060006101000a81548160ff02191690831515021790555050565b6117266118e0565b73ffffffffffffffffffffffffffffffffffffffff1660008054906101000a900473ffffffffffffffffffffffffffffffffffffffff1673ffffffffffffffffffffffffffffffffffffffff16146117b3576040517f08c379a00000000000000000000000000000000000000000000000000000000081526004016117aa9061315d565b60405180910390fd5b600073ffffffffffffffffffffffffffffffffffffffff168173ffffffffffffffffffffffffffffffffffffffff161415611823576040517f08c379a000000000000000000000000000000000000000000000000000000000815260040161181a906130bd565b60405180910390fd5b8073ffffffffffffffffffffffffffffffffffffffff1660008054906101000a900473ffffffffffffffffffffffffffffffffffffffff1673ffffffffffffffffffffffffffffffffffffffff167f8be0079c531659141344cd1fd0a4f28419497f9722a3daafe3b4186f6b6457e060405160405180910390a3806000806101000a81548173ffffffffffffffffffffffffffffffffffffffff021916908373ffffffffffffffffffffffffffffffffffffffff16021790555050565b600033905090565b600073ffffffffffffffffffffffffffffffffffffffff168373ffffffffffffffffffffffffffffffffffffffff161415611958576040517f08c379a000000000000000000000000000000000000000000000000000000000815260040161194f9061319d565b60405180910390fd5b600073ffffffffffffffffffffffffffffffffffffffff168273ffffffffffffffffffffffffffffffffffffffff1614156119c8576040517f08c379a00000000000000000000000000000000000000000000000000000000081526004016119bf906130dd565b60405180910390fd5b80600460008573ffffffffffffffffffffffffffffffffffffffff1673ffffffffffffffffffffffffffffffffffffffff16815260200190815260200160002060008473ffffffffffffffffffffffffffffffffffffffff1673ffffffffffffffffffffffffffffffffffffffff168152602001908152602001600020819055508173ffffffffffffffffffffffffffffffffffffffff168373ffffffffffffffffffffffffffffffffffffffff167f8c5be1e5ebec7d5bd14f71427d1e84f3dd0314c0f7b2291e5b200ac8c7c3b92583604051611aa691906131fd565b60405180910390a3505050565b600073ffffffffffffffffffffffffffffffffffffffff168373ffffffffffffffffffffffffffffffffffffffff161415611b23576040517f08c379a0000000000000000000000000000000000000000000000000000000008152600401611b1a9061317d565b60405180910390fd5b600073ffffffffffffffffffffffffffffffffffffffff168273ffffffffffffffffffffffffffffffffffffffff161415611b93576040517f08c379a0000000000000000000000000000000000000000000000000000000008152600401611b8a9061305d565b60405180910390fd5b60008111611bd6576040517f08c379a0000000000000000000000000000000000000000000000000000000008152600401611bcd9061307d565b60405180910390fd5b611bde610df8565b73ffffffffffffffffffffffffffffffffffffffff168373ffffffffffffffffffffffffffffffffffffffff1614158015611c4c5750611c1c610df8565b73ffffffffffffffffffffffffffffffffffffffff168273ffffffffffffffffffffffffffffffffffffffff1614155b15611c9757600f54811115611c96576040517f08c379a0000000000000000000000000000000000000000000000000000000008152600401611c8d9061311d565b60405180910390fd5b5b6000611ca230610c56565b9050600f548110611cb357600f5490505b60006010548210159050808015611cd75750601160009054906101000a900460ff16155b8015611d2f57507f000000000000000000000000000000000000000000000000000000000000000073ffffffffffffffffffffffffffffffffffffffff168573ffffffffffffffffffffffffffffffffffffffff1614155b8015611d475750601160019054906101000a900460ff165b15611d5b576010549150611d5a82611e7d565b5b60007f000000000000000000000000000000000000000000000000000000000000000073ffffffffffffffffffffffffffffffffffffffff168573ffffffffffffffffffffffffffffffffffffffff161415611db657600190505b600060019050600560008873ffffffffffffffffffffffffffffffffffffffff1673ffffffffffffffffffffffffffffffffffffffff16815260200190815260200160002060009054906101000a900460ff1680611e5d5750600560008773ffffffffffffffffffffffffffffffffffffffff1673ffffffffffffffffffffffffffffffffffffffff16815260200190815260200160002060009054906101000a900460ff165b15611e6757600090505b611e748787878585611fd3565b50505050505050565b6001601160006101000a81548160ff0219169083151502179055506000600a54600c5483611eab91906133a0565b611eb5919061336f565b905060008183611ec591906133fa565b90506000600282611ed6919061336f565b905060008183611ee691906133fa565b905060008285611ef69190613319565b90506000479050611f068261223d565b60008147611f1491906133fa565b90506000838883611f2591906133a0565b611f2f919061336f565b9050611f5d600e60009054906101000a900473ffffffffffffffffffffffffffffffffffffffff16826124fb565b611f72858284611f6d91906133fa565b612546565b7f17bbfb9a6069321b6ded73bd96327c9e6b7212a5cd51ff219cd61370acafb561868387604051611fa593929190613272565b60405180910390a150505050505050506000601160006101000a81548160ff02191690831515021790555050565b81611fe157611fe0612636565b5b80611fef57611fee612668565b5b600080611ffd85858561269a565b915091506000600360008973ffffffffffffffffffffffffffffffffffffffff1673ffffffffffffffffffffffffffffffffffffffff16815260200190815260200160002054905085811015612088576040517f08c379a000000000000000000000000000000000000000000000000000000000815260040161207f906130fd565b60405180910390fd5b858103600360008a73ffffffffffffffffffffffffffffffffffffffff1673ffffffffffffffffffffffffffffffffffffffff1681526020019081526020016000208190555082600360008973ffffffffffffffffffffffffffffffffffffffff1673ffffffffffffffffffffffffffffffffffffffff168152602001908152602001600020600082825461211d9190613319565b9250508190555081600360003073ffffffffffffffffffffffffffffffffffffffff1673ffffffffffffffffffffffffffffffffffffffff1681526020019081526020016000205461216f9190613319565b600360003073ffffffffffffffffffffffffffffffffffffffff1673ffffffffffffffffffffffffffffffffffffffff168152602001908152602001600020819055508673ffffffffffffffffffffffffffffffffffffffff168873ffffffffffffffffffffffffffffffffffffffff167fddf252ad1be2c89b69c2b068fc378daa952ba7f163c4a11628f55a4df523b3ef8560405161220f91906131fd565b60405180910390a384612225576122246126cc565b5b83612233576122326126d7565b5b5050505050505050565b6000600267ffffffffffffffff811115612280577f4e487b7100000000000000000000000000000000000000000000000000000000600052604160045260246000fd5b6040519080825280602002602001820160405280156122ae5781602001602082028036833780820191505090505b50905030816000815181106122ec577f4e487b7100000000000000000000000000000000000000000000000000000000600052603260045260246000fd5b602002602001019073ffffffffffffffffffffffffffffffffffffffff16908173ffffffffffffffffffffffffffffffffffffffff16815250507f000000000000000000000000000000000000000000000000000000000000000073ffffffffffffffffffffffffffffffffffffffff1663ad5c46486040518163ffffffff1660e01b815260040160206040518083038186803b15801561238c57600080fd5b505afa1580156123a0573d6000803e3d6000fd5b505050506040513d601f19601f820116820180604052508101906123c491906127d8565b816001815181106123fe577f4e487b7100000000000000000000000000000000000000000000000000000000600052603260045260246000fd5b602002602001019073ffffffffffffffffffffffffffffffffffffffff16908173ffffffffffffffffffffffffffffffffffffffff1681525050612463307f0000000000000000000000000000000000000000000000000000000000000000846118e8565b7f000000000000000000000000000000000000000000000000000000000000000073ffffffffffffffffffffffffffffffffffffffff1663791ac9478360008430426040518663ffffffff1660e01b81526004016124c5959493929190613218565b600060405180830381600087803b1580156124df57600080fd5b505af11580156124f3573d6000803e3d6000fd5b505050505050565b8173ffffffffffffffffffffffffffffffffffffffff166108fc829081150290604051600060405180830381858888f19350505050158015612541573d6000803e3d6000fd5b505050565b612571307f0000000000000000000000000000000000000000000000000000000000000000846118e8565b7f000000000000000000000000000000000000000000000000000000000000000073ffffffffffffffffffffffffffffffffffffffff1663f305d7198230856000806125bb610df8565b426040518863ffffffff1660e01b81526004016125dd96959493929190612fa4565b6060604051808303818588803b1580156125f657600080fd5b505af115801561260a573d6000803e3d6000fd5b50505050506040513d601f19601f8201168201806040525081019061262f919061291a565b5050505050565b6000600c5414801561264a57506000600a54145b1561265457612666565b600a54600b819055506000600a819055505b565b6000600c5414801561267c57506000600a54145b1561268657612698565b600c54600d819055506000600c819055505b565b60008060006126aa8686866126e2565b9050600081876126ba91906133fa565b90508082935093505050935093915050565b600b54600a81905550565b600d54600c81905550565b60008060009050831561270d57600c54600a54826127009190613319565b61270a91906133fa565b90505b821561272457600c54816127219190613319565b90505b6064818661273291906133a0565b61273c919061336f565b9150509392505050565b600081359050612755816135bc565b92915050565b60008151905061276a816135bc565b92915050565b60008135905061277f816135d3565b92915050565b600081359050612794816135ea565b92915050565b6000815190506127a9816135ea565b92915050565b6000602082840312156127c157600080fd5b60006127cf84828501612746565b91505092915050565b6000602082840312156127ea57600080fd5b60006127f88482850161275b565b91505092915050565b6000806040838503121561281457600080fd5b600061282285828601612746565b925050602061283385828601612746565b9150509250929050565b60008060006060848603121561285257600080fd5b600061286086828701612746565b935050602061287186828701612746565b925050604061288286828701612785565b9150509250925092565b6000806040838503121561289f57600080fd5b60006128ad85828601612746565b92505060206128be85828601612785565b9150509250929050565b6000602082840312156128da57600080fd5b60006128e884828501612770565b91505092915050565b60006020828403121561290357600080fd5b600061291184828501612785565b91505092915050565b60008060006060848603121561292f57600080fd5b600061293d8682870161279a565b935050602061294e8682870161279a565b925050604061295f8682870161279a565b9150509250925092565b60006129758383612981565b60208301905092915050565b61298a8161342e565b82525050565b6129998161342e565b82525050565b60006129aa826132d4565b6129b481856132f7565b93506129bf836132c4565b8060005b838110156129f05781516129d78882612969565b97506129e2836132ea565b9250506001810190506129c3565b5085935050505092915050565b612a0681613440565b82525050565b612a1581613483565b82525050565b612a24816134a7565b82525050565b6000612a35826132df565b612a3f8185613308565b9350612a4f8185602086016134b9565b612a58816135ab565b840191505092915050565b6000612a70602383613308565b91507f45524332303a207472616e7366657220746f20746865207a65726f206164647260008301527f65737300000000000000000000000000000000000000000000000000000000006020830152604082019050919050565b6000612ad6603083613308565b91507f45524332303a205472616e7366657220616d6f756e74206d757374206265206760008301527f726561746572207468616e207a65726f000000000000000000000000000000006020830152604082019050919050565b6000612b3c602183613308565b91507f4f776e61626c653a20436f6e7472616374206973207374696c6c206c6f636b6560008301527f64000000000000000000000000000000000000000000000000000000000000006020830152604082019050919050565b6000612ba2602683613308565b91507f4f776e61626c653a206e6577206f776e657220697320746865207a65726f206160008301527f64647265737300000000000000000000000000000000000000000000000000006020830152604082019050919050565b6000612c08602283613308565b91507f45524332303a20617070726f766520746f20746865207a65726f20616464726560008301527f73730000000000000000000000000000000000000000000000000000000000006020830152604082019050919050565b6000612c6e602683613308565b91507f45524332303a207472616e7366657220616d6f756e742065786365656473206260008301527f616c616e636500000000000000000000000000000000000000000000000000006020830152604082019050919050565b6000612cd4602f83613308565b91507f45524332303a205472616e7366657220616d6f756e742065786365656473207460008301527f6865206d61785478416d6f756e742e00000000000000000000000000000000006020830152604082019050919050565b6000612d3a602883613308565b91507f45524332303a207472616e7366657220616d6f756e742065786365656473206160008301527f6c6c6f77616e63650000000000000000000000000000000000000000000000006020830152604082019050919050565b6000612da0602083613308565b91507f4f776e61626c653a2063616c6c6572206973206e6f7420746865206f776e65726000830152602082019050919050565b6000612de0602583613308565b91507f45524332303a207472616e736665722066726f6d20746865207a65726f20616460008301527f64726573730000000000000000000000000000000000000000000000000000006020830152604082019050919050565b6000612e46602483613308565b91507f45524332303a20617070726f76652066726f6d20746865207a65726f2061646460008301527f72657373000000000000000000000000000000000000000000000000000000006020830152604082019050919050565b6000612eac602c83613308565b91507f4f776e61626c653a20596f7520646f6e27742068617665207065726d6973736960008301527f6f6e20746f20756e6c6f636b00000000000000000000000000000000000000006020830152604082019050919050565b6000612f12602583613308565b91507f45524332303a2064656372656173656420616c6c6f77616e63652062656c6f7760008301527f207a65726f0000000000000000000000000000000000000000000000000000006020830152604082019050919050565b612f748161346c565b82525050565b612f8381613476565b82525050565b6000602082019050612f9e6000830184612990565b92915050565b600060c082019050612fb96000830189612990565b612fc66020830188612f6b565b612fd36040830187612a1b565b612fe06060830186612a1b565b612fed6080830185612990565b612ffa60a0830184612f6b565b979650505050505050565b600060208201905061301a60008301846129fd565b92915050565b60006020820190506130356000830184612a0c565b92915050565b600060208201905081810360008301526130558184612a2a565b905092915050565b6000602082019050818103600083015261307681612a63565b9050919050565b6000602082019050818103600083015261309681612ac9565b9050919050565b600060208201905081810360008301526130b681612b2f565b9050919050565b600060208201905081810360008301526130d681612b95565b9050919050565b600060208201905081810360008301526130f681612bfb565b9050919050565b6000602082019050818103600083015261311681612c61565b9050919050565b6000602082019050818103600083015261313681612cc7565b9050919050565b6000602082019050818103600083015261315681612d2d565b9050919050565b6000602082019050818103600083015261317681612d93565b9050919050565b6000602082019050818103600083015261319681612dd3565b9050919050565b600060208201905081810360008301526131b681612e39565b9050919050565b600060208201905081810360008301526131d681612e9f565b9050919050565b600060208201905081810360008301526131f681612f05565b9050919050565b60006020820190506132126000830184612f6b565b92915050565b600060a08201905061322d6000830188612f6b565b61323a6020830187612a1b565b818103604083015261324c818661299f565b905061325b6060830185612990565b6132686080830184612f6b565b9695505050505050565b60006060820190506132876000830186612f6b565b6132946020830185612f6b565b6132a16040830184612f6b565b949350505050565b60006020820190506132be6000830184612f7a565b92915050565b6000819050602082019050919050565b600081519050919050565b600081519050919050565b6000602082019050919050565b600082825260208201905092915050565b600082825260208201905092915050565b60006133248261346c565b915061332f8361346c565b9250827fffffffffffffffffffffffffffffffffffffffffffffffffffffffffffffffff038211156133645761336361351e565b5b828201905092915050565b600061337a8261346c565b91506133858361346c565b9250826133955761339461354d565b5b828204905092915050565b60006133ab8261346c565b91506133b68361346c565b9250817fffffffffffffffffffffffffffffffffffffffffffffffffffffffffffffffff04831182151516156133ef576133ee61351e565b5b828202905092915050565b60006134058261346c565b91506134108361346c565b9250828210156134235761342261351e565b5b828203905092915050565b60006134398261344c565b9050919050565b60008115159050919050565b600073ffffffffffffffffffffffffffffffffffffffff82169050919050565b6000819050919050565b600060ff82169050919050565b600061348e82613495565b9050919050565b60006134a08261344c565b9050919050565b60006134b28261346c565b9050919050565b60005b838110156134d75780820151818401526020810190506134bc565b838111156134e6576000848401525b50505050565b6000600282049050600182168061350457607f821691505b602082108114156135185761351761357c565b5b50919050565b7f4e487b7100000000000000000000000000000000000000000000000000000000600052601160045260246000fd5b7f4e487b7100000000000000000000000000000000000000000000000000000000600052601260045260246000fd5b7f4e487b7100000000000000000000000000000000000000000000000000000000600052602260045260246000fd5b6000601f19601f8301169050919050565b6135c58161342e565b81146135d057600080fd5b50565b6135dc81613440565b81146135e757600080fd5b50565b6135f38161346c565b81146135fe57600080fd5b5056fea26469706673582212200ab7536517a1ac630e6bd2963498dc694a89fa29be50b27874dee468fa072cd664736f6c63430008000033",
  "immutableReferences": {
    "1224": [
      {
        "length": 32,
        "start": 2087
      },
      {
        "length": 32,
        "start": 9000
      },
      {
        "length": 32,
        "start": 9278
      },
      {
        "length": 32,
        "start": 9317
      },
      {
        "length": 32,
        "start": 9548
      },
      {
        "length": 32,
        "start": 9587
      }
    ],
    "1226": [
      {
        "length": 32,
        "start": 3013
      },
      {
        "length": 32,
        "start": 7392
      },
      {
        "length": 32,
        "start": 7519
      }
    ]
  },
  "source": "// SPDX-License-Identifier: MIT\r\n\r\npragma solidity ^0.8.0;\r\n\r\n/**\r\n * MM     MM EEEEEEEE  OOOOOO  WW     WW\r\n * MMM   MMM EE       OO    OO WW  W  WW\r\n * MMMM MMMM EEEEEE   OO    OO WWwW WWWW\r\n * MM  M  MM EE       OO    OO WWW   WWW\r\n * MM     MM EEEEEEEE  OOOOOO  WW     WW\r\n *\r\n *\r\n * CATEMOON | CTM\r\n * #LIQ\r\n * \r\n * # Catemoon features:\r\n *    5% fee auto add to the LP to locked forever when selling\r\n *    50% supply is burned at the start\r\n */\r\n\r\nimport \"@openzeppelin/contracts/utils/Context.sol\";\r\nimport \"@openzeppelin/contracts/utils/Address.sol\";\r\nimport \"@openzeppelin/contracts/token/ERC20/IERC20.sol\";\r\nimport \"@openzeppelin/contracts/token/ERC20/extensions/IERC20Metadata.sol\";\r\nimport \"@uniswap/v2-core/contracts/interfaces/IUniswapV2Pair.sol\";\r\nimport \"@uniswap/v2-core/contracts/interfaces/IUniswapV2Factory.sol\";\r\nimport \"@uniswap/v2-periphery/contracts/interfaces/IUniswapV2Router01.sol\";\r\nimport \"@uniswap/v2-periphery/contracts/interfaces/IUniswapV2Router02.sol\";\r\nimport \"./Ownable.sol\";\r\n\r\ncontract Catemoon is Context, IERC20, IERC20Metadata, Ownable {\r\n  using Address for address;\r\n\r\n  mapping(address => uint256) private _balances;\r\n  mapping(address => mapping(address => uint256)) private _allowances;\r\n\r\n  mapping(address => bool) private _isExcludedFromFee;\r\n\r\n  uint256 private constant TOTAL_SUPPLY = 2 * 10**2 * 10**9 * 10**18; // Total supply is 200 billion\r\n\r\n  string private _name = \"Alien\";\r\n  string private _symbol = \"ALI\";\r\n  uint8 private _decimals = 18;\r\n  uint256 private _totalSupply;\r\n\r\n  // 5% liquidity fee\r\n  uint256 public _liquidityFee = 7;\r\n  uint256 private _previousLiquidityFee = _liquidityFee;\r\n\r\n  uint256 public _devFee = 2;\r\n  uint256 private _previousDevFee = _devFee;\r\n\r\n  address public devAddress = 0x3ed5E8D1149c26C79B5C24ADbD3A1400d838E57C;\r\n\r\n  uint256 public _maxTxAmount = 2 * 10**9 * 10**18; // 2% of total supply\r\n  uint256 private numTokensSellToAddToLiquidity = 1 * 10**7 * 10**18; // 0.05% of total supply\r\n\r\n  IUniswapV2Router02 public immutable uniswapV2Router;\r\n  address public immutable uniswapV2Pair;\r\n\r\n  bool inSwapAndLiquify;\r\n  bool public swapAndLiquifyEnabled = true;\r\n\r\n  event MinTokensBeforeSwapUpdated(uint256 minTokensBeforeSwap);\r\n  event SwapAndLiquifyEnabledUpdated(bool enabled);\r\n  event SwapAndLiquify(\r\n    uint256 tokensSwapped,\r\n    uint256 ethReceived,\r\n    uint256 tokensIntoLiqudity\r\n  );\r\n\r\n  modifier lockTheSwap {\r\n    inSwapAndLiquify = true;\r\n    _;\r\n    inSwapAndLiquify = false;\r\n  }\r\n\r\n  constructor () {\r\n      // 0xD99D1c33F9fC3444f8101754aBC46c52416550D1\r\n      // 0x10ED43C718714eb63d5aA57B78B54704E256024E\r\n    IUniswapV2Router02 _uniswapV2Router = IUniswapV2Router02(0x10ED43C718714eb63d5aA57B78B54704E256024E);\r\n    // Create a uniswap pair for this new token\r\n    uniswapV2Pair = IUniswapV2Factory(_uniswapV2Router.factory()).createPair(address(this), _uniswapV2Router.WETH());\r\n\r\n    // set the rest of the contract variables\r\n    uniswapV2Router = _uniswapV2Router;\r\n\r\n    _isExcludedFromFee[owner()] = true;\r\n    _isExcludedFromFee[address(this)] = true;\r\n\r\n    _mint(msg.sender, TOTAL_SUPPLY);\r\n    _burn(msg.sender, TOTAL_SUPPLY / 2);\r\n  }\r\n\r\n  function name() public view virtual override returns (string memory) {\r\n    return _name;\r\n  }\r\n\r\n  function symbol() public view virtual override returns (string memory) {\r\n    return _symbol;\r\n  }\r\n\r\n  function decimals() public view virtual override returns (uint8) {\r\n    return _decimals;\r\n  }\r\n\r\n  function totalSupply() public view virtual override returns (uint256) {\r\n    return _totalSupply;\r\n  }\r\n\r\n  function balanceOf(address account) public view virtual override returns (uint256) {\r\n    return _balances[account];\r\n  }\r\n\r\n  function transfer(address recipient, uint256 amount) public virtual override returns (bool) {\r\n    _transfer(_msgSender(), recipient, amount);\r\n    return true;\r\n  }\r\n\r\n  function allowance(address owner, address spender) public view virtual override returns (uint256) {\r\n    return _allowances[owner][spender];\r\n  }\r\n\r\n  function approve(address spender, uint256 amount) public virtual override returns (bool) {\r\n    _approve(_msgSender(), spender, amount);\r\n    return true;\r\n  }\r\n\r\n  function transferFrom(address sender, address recipient, uint256 amount) public virtual override returns (bool) {\r\n      _transfer(sender, recipient, amount);\r\n      uint256 currentAllowance = _allowances[sender][_msgSender()];\r\n      require(currentAllowance >= amount, \"ERC20: transfer amount exceeds allowance\");\r\n      unchecked {\r\n        _approve(sender, _msgSender(), currentAllowance - amount);\r\n      }\r\n\r\n      return true;\r\n  }\r\n\r\n  function increaseAllowance(address spender, uint256 addedValue) public virtual returns (bool) {\r\n    _approve(_msgSender(), spender, _allowances[_msgSender()][spender] + addedValue);\r\n    return true;\r\n  }\r\n\r\n  function decreaseAllowance(address spender, uint256 subtractedValue) public virtual returns (bool) {\r\n    uint256 currentAllowance = _allowances[_msgSender()][spender];\r\n    require(currentAllowance >= subtractedValue, \"ERC20: decreased allowance below zero\");\r\n    unchecked {\r\n      _approve(_msgSender(), spender, currentAllowance - subtractedValue);\r\n    }\r\n\r\n    return true;\r\n  }\r\n\r\n  function isExcludedFromFee(address account) public view returns(bool) {\r\n    return _isExcludedFromFee[account];\r\n  }\r\n\r\n  function includeInFee(address account) public onlyOwner {\r\n    _isExcludedFromFee[account] = false;\r\n  }\r\n\r\n  function excludeFromFee(address account) public onlyOwner {\r\n    _isExcludedFromFee[account] = true;\r\n  }\r\n\r\n  function removeLPFee() private {\r\n    if(_devFee == 0 && _liquidityFee == 0) return;\r\n    \r\n    _previousLiquidityFee = _liquidityFee;\r\n    _liquidityFee = 0;\r\n  }\r\n\r\n  function removeDevFee() private {\r\n    if(_devFee == 0 && _liquidityFee == 0) return;\r\n\r\n    _previousDevFee = _devFee;\r\n    _devFee = 0;\r\n  }\r\n  \r\n  function restoreLPFee() private {\r\n    _liquidityFee = _previousLiquidityFee;\r\n  }\r\n\r\n  function restoreDevFee() private {\r\n    _devFee = _previousDevFee;\r\n  }\r\n\r\n  // This method is responsible for taking all fee, if takeFee is true\r\n  function _tokenTransfer(address sender, address recipient, uint256 amount, bool takeLPFee, bool takeDevFee) private {\r\n    if(!takeLPFee) {\r\n      removeLPFee();\r\n    }\r\n\r\n    if(!takeDevFee) {\r\n      removeDevFee();\r\n    }\r\n    \r\n    // Calculate liquidity fee and actual transfer amount\r\n    (uint256 transferAmount, uint256 txFee) = _getValues(amount, takeLPFee, takeDevFee);\r\n\r\n    uint256 senderBalance = _balances[sender];\r\n    require(senderBalance >= amount, \"ERC20: transfer amount exceeds balance\");\r\n    unchecked {\r\n      // Decrease sender balance\r\n      _balances[sender] = senderBalance - amount;\r\n    }\r\n    // Increase recipient balance\r\n    _balances[recipient] += transferAmount;\r\n\r\n    // Increase contract balance with liquidity fee\r\n    _balances[address(this)] = _balances[address(this)] + txFee;\r\n\r\n    // Emit token transfer event\r\n    emit Transfer(sender, recipient, transferAmount);\r\n    \r\n    if(!takeLPFee) {\r\n      restoreLPFee();\r\n    }\r\n\r\n    if(!takeDevFee) {\r\n      restoreDevFee();\r\n    }\r\n  }\r\n\r\n  function _getValues(uint256 _amount, bool takeLPFee, bool takeDevFee) private view returns (uint256, uint256) {\r\n    uint256 txFee = calculatetxFee(_amount, takeLPFee, takeDevFee);\r\n    uint256 transferAmount = _amount - txFee;\r\n    return (transferAmount, txFee);\r\n  }\r\n\r\n  function calculatetxFee(uint256 _amount, bool takeLPFee, bool takeDevFee) private view returns (uint256) {\r\n    uint256 feePercent = 0;\r\n    if (takeLPFee) {\r\n      feePercent = feePercent + _liquidityFee - _devFee;\r\n    }\r\n\r\n    if (takeDevFee) {\r\n      feePercent = feePercent + _devFee;\r\n    }\r\n\r\n    return _amount * feePercent / 10**2;\r\n  }\r\n\r\n  function _transfer(address sender, address recipient, uint256 amount) internal virtual {\r\n    require(sender != address(0), \"ERC20: transfer from the zero address\");\r\n    require(recipient != address(0), \"ERC20: transfer to the zero address\");\r\n    require(amount > 0, \"ERC20: Transfer amount must be greater than zero\");\r\n\r\n    if(sender != owner() && recipient != owner()) {\r\n      require(amount <= _maxTxAmount, \"ERC20: Transfer amount exceeds the maxTxAmount.\");\r\n    }\r\n\r\n    uint256 contractTokenBalance = balanceOf(address(this));\r\n    if(contractTokenBalance >= _maxTxAmount)\r\n    {\r\n      contractTokenBalance = _maxTxAmount;\r\n    }\r\n    bool overMinTokenBalance = contractTokenBalance >= numTokensSellToAddToLiquidity;\r\n\r\n    // When the balance of the contract reaches the minimum available amount \r\n    // and it is not in the middle of swap and when the swap and liquify feature has been enabled, \r\n    // when it is for the sell.\r\n    if (overMinTokenBalance && !inSwapAndLiquify && sender != uniswapV2Pair && swapAndLiquifyEnabled) {\r\n      contractTokenBalance = numTokensSellToAddToLiquidity;\r\n      //add liquidity\r\n      swapAndLiquify(contractTokenBalance);\r\n    }\r\n\r\n    //indicates if fee should be deducted from transfer\r\n    bool takeLPFee = false;\r\n    \r\n    if(recipient == uniswapV2Pair){\r\n      takeLPFee = true;\r\n    }\r\n\r\n    //indicates if fee should be deducted from transfer\r\n    bool takeDevFee = true;\r\n\r\n    //if any account belongs to _isExcludedFromFee account then remove the fee\r\n    if(_isExcludedFromFee[sender] || _isExcludedFromFee[recipient]){\r\n      takeDevFee = false;\r\n    }\r\n    \r\n    //transfer amount, it will take tax, burn, liquidity fee\r\n    _tokenTransfer(sender, recipient, amount, takeLPFee, takeDevFee);\r\n  }\r\n\r\n  function swapAndLiquify(uint256 contractTokenBalance) private lockTheSwap {\r\n    uint256 devBalance = contractTokenBalance * _devFee / _liquidityFee;\r\n    uint256 lpBalance = contractTokenBalance - devBalance;\r\n    \r\n    // split the contract balance into halves\r\n    uint256 half = lpBalance / 2;\r\n    uint256 otherHalf = lpBalance - half;\r\n\r\n    uint256 swapBalance = devBalance + half;\r\n\r\n    // capture the contract's current ETH balance.\r\n    // this is so that we can capture exactly the amount of ETH that the\r\n    // swap creates, and not make the liquidity event include any ETH that\r\n    // has been manually sent to the contract\r\n    uint256 initialBalance = address(this).balance;\r\n\r\n    // swap tokens for ETH\r\n    swapTokensForEth(swapBalance); // <- this breaks the ETH -> HATE swap when swap + liquify is triggered\r\n\r\n    // how much ETH did we just swap into?\r\n    uint256 newBalance = address(this).balance - initialBalance;\r\n\r\n    uint256 devETH = newBalance * devBalance / swapBalance;\r\n\r\n    //Send to Marketing address\r\n    transferToAddressETH(devAddress, devETH);\r\n\r\n    // add liquidity to uniswap\r\n    addLiquidity(otherHalf, newBalance - devETH);\r\n    \r\n    emit SwapAndLiquify(half, newBalance, otherHalf);\r\n  }\r\n\r\n  function swapTokensForEth(uint256 tokenAmount) private {\r\n    // generate the uniswap pair path of token -> weth\r\n    address[] memory path = new address[](2);\r\n    path[0] = address(this);\r\n    path[1] = uniswapV2Router.WETH();\r\n\r\n    _approve(address(this), address(uniswapV2Router), tokenAmount);\r\n\r\n    // make the swap\r\n    uniswapV2Router.swapExactTokensForETHSupportingFeeOnTransferTokens(\r\n      tokenAmount,\r\n      0, // accept any amount of ETH\r\n      path,\r\n      address(this),\r\n      block.timestamp\r\n    );\r\n  }\r\n\r\n  function addLiquidity(uint256 tokenAmount, uint256 ethAmount) private {\r\n    // approve token transfer to cover all possible scenarios\r\n    _approve(address(this), address(uniswapV2Router), tokenAmount);\r\n\r\n    // add the liquidity\r\n    uniswapV2Router.addLiquidityETH{value: ethAmount}(\r\n      address(this),\r\n      tokenAmount,\r\n      0, // slippage is unavoidable\r\n      0, // slippage is unavoidable\r\n      owner(),\r\n      block.timestamp\r\n    );\r\n  }\r\n\r\n  function _mint(address account, uint256 amount) internal virtual {\r\n    require(account != address(0), \"ERC20: mint to the zero address\");\r\n\r\n    _totalSupply += amount;\r\n    _balances[account] += amount;\r\n    emit Transfer(address(0), account, amount);\r\n  }\r\n\r\n  function _burn(address account, uint256 amount) internal virtual {\r\n    require(account != address(0), \"ERC20: burn from the zero address\");\r\n\r\n    uint256 accountBalance = _balances[account];\r\n    require(accountBalance >= amount, \"ERC20: burn amount exceeds balance\");\r\n    unchecked {\r\n      _balances[account] = accountBalance - amount;\r\n    }\r\n    _totalSupply -= amount;\r\n\r\n    emit Transfer(account, address(0), amount);\r\n  }\r\n\r\n  function _approve(address owner, address spender, uint256 amount) internal virtual {\r\n    require(owner != address(0), \"ERC20: approve from the zero address\");\r\n    require(spender != address(0), \"ERC20: approve to the zero address\");\r\n\r\n    _allowances[owner][spender] = amount;\r\n    emit Approval(owner, spender, amount);\r\n  }\r\n\r\n  function setSwapAndLiquifyEnabled(bool _enabled) public onlyOwner {\r\n    swapAndLiquifyEnabled = _enabled;\r\n    emit SwapAndLiquifyEnabledUpdated(_enabled);\r\n  }\r\n\r\n  function setLiquidityFeePercent(uint256 liquidityFee) external onlyOwner() {\r\n    _liquidityFee = liquidityFee;\r\n  }\r\n\r\n  function setDevFeePercent(uint256 devFee) external onlyOwner() {\r\n    _devFee = devFee;\r\n  }\r\n\r\n  function setMaxTxPercent(uint256 maxTxPercent) external onlyOwner() {\r\n    _maxTxAmount = _totalSupply * maxTxPercent / 10**2;\r\n  }\r\n\r\n  function transferToAddressETH(address recipient, uint256 amount) private {\r\n    payable(recipient).transfer(amount);\r\n  }\r\n  \r\n  //to recieve ETH from uniswapV2Router when swaping\r\n  receive() external payable {}\r\n}",
  "sourcePath": "F:\\Cory_Career\\Ioannis_Kanellopoulos\\Catemoon\\catemoon-token-bep20\\contracts\\Catemoon.sol",
  "compiler": {
    "name": "solc",
    "version": "0.8.0+commit.c7dfd78e.Emscripten.clang"
  },
  "schemaVersion": "3.4.3",
  "updatedAt": "2021-11-05T18:44:34.882Z",
  "networkType": "ethereum",
  "devdoc": {
    "kind": "dev",
    "methods": {
      "allowance(address,address)": {
        "details": "Returns the remaining number of tokens that `spender` will be allowed to spend on behalf of `owner` through {transferFrom}. This is zero by default. This value changes when {approve} or {transferFrom} are called."
      },
      "approve(address,uint256)": {
        "details": "Sets `amount` as the allowance of `spender` over the caller's tokens. Returns a boolean value indicating whether the operation succeeded. IMPORTANT: Beware that changing an allowance with this method brings the risk that someone may use both the old and the new allowance by unfortunate transaction ordering. One possible solution to mitigate this race condition is to first reduce the spender's allowance to 0 and set the desired value afterwards: https://github.com/ethereum/EIPs/issues/20#issuecomment-263524729 Emits an {Approval} event."
      },
      "balanceOf(address)": {
        "details": "Returns the amount of tokens owned by `account`."
      },
      "decimals()": {
        "details": "Returns the decimals places of the token."
      },
      "name()": {
        "details": "Returns the name of the token."
      },
      "owner()": {
        "details": "Returns the address of the current owner."
      },
      "renounceOwnership()": {
        "details": "Leaves the contract without owner. It will not be possible to call `onlyOwner` functions anymore. Can only be called by the current owner. NOTE: Renouncing ownership will leave the contract without an owner, thereby removing any functionality that is only available to the owner."
      },
      "symbol()": {
        "details": "Returns the symbol of the token."
      },
      "totalSupply()": {
        "details": "Returns the amount of tokens in existence."
      },
      "transfer(address,uint256)": {
        "details": "Moves `amount` tokens from the caller's account to `recipient`. Returns a boolean value indicating whether the operation succeeded. Emits a {Transfer} event."
      },
      "transferFrom(address,address,uint256)": {
        "details": "Moves `amount` tokens from `sender` to `recipient` using the allowance mechanism. `amount` is then deducted from the caller's allowance. Returns a boolean value indicating whether the operation succeeded. Emits a {Transfer} event."
      },
      "transferOwnership(address)": {
        "details": "Transfers ownership of the contract to a new account (`newOwner`). Can only be called by the current owner."
      }
    },
    "version": 1
  },
  "userdoc": {
    "kind": "user",
    "methods": {},
    "version": 1
  }
}